:1000000045C0000060C000005EC000005CC0000091
:100010005AC0000058C0000056C0000054C0000084
:1000200052C0000050C000004EC000004CC0000094
:100030004AC0000048C0000046C0000044C00000A4
:1000400042C0000040C000003EC000003CC00000B4
:100050003AC0000038C0000036C0000034C00000C4
:1000600032C0000030C000002EC000002CC00000D4
:100070002AC0000028C0000026C0000024C00000E4
:1000800022C0000020C000001EC0000011241FBEBE
:10009000CFEFD0E4DEBFCDBF11E0A0E0B1E0EAE7F2
:1000A000F6E000E00BBF02C007900D92AE32B10740
:1000B000D9F721E0AEE2B1E001C01D92A933B20749
:1000C000E1F78CD1D8C29CCF80B18095847090919B
:1000D0003701992319F0913069F016C08823E1F0B7
:1000E00081E0809337018FE493EC0197F1F700C032
:1000F00000000AC08823B1F0109237018FE493EC1E
:100100000197F1F700C0000080913701882321F0AA
:10011000813009F0A9C006C01092360181E08093B9
:100120000C01089580917C00803419F08134B9F07D
:100130002BC0EAE7F0E0808180648083808184FFC7
:10014000FDCFE8E7F0E080819181909335018093C5
:1001500034011182108281E480937C0015C0EAE7AB
:10016000F0E0808180648083808184FFFDCFE8E7B8
:10017000F0E080819181909333018093320111826C
:10018000108280E480937C0080910A0190910B01A1
:10019000C29720913401309135012817390784F432
:1001A00080910C0188231CF0880F80930C019FE53F
:1001B0002AEE80E0915020408040E1F700C000002E
:1001C00080910A0190910B01C296209134013091E7
:1001D00035018217930784F480910C01823018F066
:1001E000869580930C019FE52AEE80E09150204097
:1001F0008040E1F700C00000809108019091090162
:10020000C29720913201309133012817390784F4C5
:1002100080913601873018F48F5F809336019FE517
:100220002AEE80E0915020408040E1F700C00000BD
:100230008091080190910901C2962091320130917C
:1002400033018217930784F480913601882319F0D3
:100250008150809336019FE52AEE80E09150204046
:100260008040E1F700C00000089580B1809584705F
:1002700090913801992319F0913071F041C0882391
:1002800009F447C081E0809338018FE493EC019733
:10029000F1F700C0000034C0882341F0109238010B
:1002A0008FE493EC0197F1F700C0000080913101D9
:1002B00090E0A0E0B0E04091040150910501609110
:1002C000060170910701481759076A077B0724F454
:1002D00082E08093380139C09091300180913601DD
:1002E000981372C0E0912F01F0E0EB5EFE4F908119
:1002F00080910C0198135EC082E0809338012BC07E
:10030000809138018130D9F020F0823009F065C049
:100310001CC087E08093300180932F0110922E0142
:1003200088EE93E0A0E0B0E0809304019093050193
:10033000A0930601B09307011092310108958091B6
:1003400031018F5F80933101089590913001809148
:100350003601981323C0E0912F01F0E0EB5EFE4FD1
:10036000908180910C01981319C080912E018F5FAC
:1003700080932E018091040190910501A0910601C6
:10038000B091070184569109A109B1098093040134
:1003900090930501A0930601B093070110923101DB
:1003A000FFD067E070E08ED080932F0181E08093D2
:1003B0003801089580913801813009F4C0CF08F4E4
:1003C000A8CF823051F4C7CF80913801813009F431
:1003D000B6CF08F49ECF823009F3089511B88FEF9D
:1003E00082B984B915B887B918B88AB91BB8ECE7CF
:1003F000F0E0808180648083EAE7F0E080818168BA
:10040000808310923701109238011092360181E0FA
:1004100080930C01CDE2D1E057DEE0913601F0E0AF
:10042000EB5EFE4F808188B980910C0180958BB97D
:1004300081EE94E00197F1F700C0000018B815DFD5
:10044000E0913001F0E0EB5EFE4F808188B9E091F1
:100450002F01F0E0E35FFE4F808180958BB981EE44
:1004600094E00197F1F700C0000080912E018530E3
:1004700098F2109237011092380128EE33E013C041
:100480008D9188B98081329680958BB981EE94E008
:100490000197F1F700C00000EC17FD0789F718B8C5
:1004A0002150310929F0ADE0B1E0EDE1F1E0E8CF14
:1004B0009FE322E48FE0915020408040E1F700C0AC
:1004C0000000AACF97FB072E16F4009406D077FD04
:1004D00008D00BD007FC05D03EF4909581959F4F36
:1004E0000895709561957F4F0895AA1BBB1B51E13C
:1004F00007C0AA1FBB1FA617B70710F0A61BB70B94
:10050000881F991F5A95A9F780959095BC01CD0138
:1005100008958F929F92AF92BF92CF92DF92EF9207
:10052000FF92CF93DF93EC01688179818A819B816F
:10053000611571058105910521F464E279ED8BE582
:1005400097E02DE133EF41E050E038D049015A0106
:100550009B01AC01A7EAB1E44DD06B017C01ACEE8C
:10056000B4EFA501940152D0DC01CB018C0D9D1D8F
:10057000AE1DBF1DB7FF03C00197A109B048888316
:100580009983AA83BB839F77DF91CF91FF90EF90F0
:10059000DF90CF90BF90AF909F908F900895B9CF8C
:1005A00080E091E0B6CFA0E0B0E0809300019093AE
:1005B0000101A0930201B09303010895052E97FB5A
:1005C00016F400940FD057FD05D024D007FC02D0BC
:1005D00046F408C050954095309521953F4F4F4FB8
:1005E0005F4F089590958095709561957F4F8F4FDF
:1005F0009F4F089531D0A59F900DB49F900DA49F5B
:10060000800D911D11240895B7FFF4CFF3DF821BF5
:10061000930B0895A1E21A2EAA1BBB1BFD010DC06E
:10062000AA1FBB1FEE1FFF1FA217B307E407F507A2
:1006300020F0A21BB30BE40BF50B661F771F881F7E
:10064000991F1A9469F760957095809590959B0114
:10065000AC01BD01CF010895A29FB001B39FC001BD
:10066000A39F700D811D1124911DB29F700D811DDE
:0A0670001124911D0895F894FFCFA6
:10067A0001000000E8030000FF01FF01010102047C
:10068A0008102040800804020110204080FE00FF6C
:0E069A00000300FF00FF000300FF00FE000051
:00000001FF
